{
  "_format": "hh-sol-artifact-1",
  "contractName": "ShipmentTracker",
  "sourceName": "contracts/ShipmentTracker.sol",
  "abi": [
    {
      "anonymous": false,
      "inputs": [
        {
          "indexed": false,
          "internalType": "string",
          "name": "shipmentId",
          "type": "string"
        },
        {
          "indexed": true,
          "internalType": "address",
          "name": "owner",
          "type": "address"
        },
        {
          "indexed": true,
          "internalType": "address",
          "name": "receiver",
          "type": "address"
        }
      ],
      "name": "ShipmentCreated",
      "type": "event"
    },
    {
      "inputs": [
        {
          "internalType": "string",
          "name": "_shipmentId",
          "type": "string"
        },
        {
          "internalType": "address",
          "name": "_receiver",
          "type": "address"
        },
        {
          "internalType": "string",
          "name": "_completedStep",
          "type": "string"
        },
        {
          "internalType": "uint256",
          "name": "_acceptedCount",
          "type": "uint256"
        }
      ],
      "name": "createShipment",
      "outputs": [],
      "stateMutability": "nonpayable",
      "type": "function"
    },
    {
      "inputs": [
        {
          "internalType": "string",
          "name": "_shipmentId",
          "type": "string"
        }
      ],
      "name": "getShipment",
      "outputs": [
        {
          "internalType": "string",
          "name": "",
          "type": "string"
        },
        {
          "internalType": "address",
          "name": "",
          "type": "address"
        },
        {
          "internalType": "address",
          "name": "",
          "type": "address"
        },
        {
          "internalType": "string",
          "name": "",
          "type": "string"
        },
        {
          "internalType": "uint256",
          "name": "",
          "type": "uint256"
        }
      ],
      "stateMutability": "view",
      "type": "function"
    },
    {
      "inputs": [
        {
          "internalType": "string",
          "name": "",
          "type": "string"
        }
      ],
      "name": "shipments",
      "outputs": [
        {
          "internalType": "string",
          "name": "shipmentId",
          "type": "string"
        },
        {
          "internalType": "address",
          "name": "owner",
          "type": "address"
        },
        {
          "internalType": "address",
          "name": "receiver",
          "type": "address"
        },
        {
          "internalType": "string",
          "name": "completedStep",
          "type": "string"
        },
        {
          "internalType": "uint256",
          "name": "acceptedCount",
          "type": "uint256"
        },
        {
          "internalType": "bool",
          "name": "exists",
          "type": "bool"
        }
      ],
      "stateMutability": "view",
      "type": "function"
    }
  ],
  "bytecode": "0x608060405234801561001057600080fd5b50611038806100206000396000f3fe608060405234801561001057600080fd5b50600436106100415760003560e01c806317e551a2146100465780635ceaef5b14610062578063da34f3d514610097575b600080fd5b610060600480360381019061005b9190610967565b6100cb565b005b61007c60048036038101906100779190610a06565b610306565b60405161008e96959493929190610b07565b60405180910390f35b6100b160048036038101906100ac9190610a06565b6104b5565b6040516100c2959493929190610b76565b60405180910390f35b6000846040516100db9190610c13565b908152602001604051809103902060050160009054906101000a900460ff161561013a576040517f08c379a000000000000000000000000000000000000000000000000000000000815260040161013190610c76565b60405180910390fd5b6040518060c001604052808581526020013373ffffffffffffffffffffffffffffffffffffffff1681526020018473ffffffffffffffffffffffffffffffffffffffff168152602001838152602001828152602001600115158152506000856040516101a69190610c13565b908152602001604051809103902060008201518160000190816101c99190610ea2565b5060208201518160010160006101000a81548173ffffffffffffffffffffffffffffffffffffffff021916908373ffffffffffffffffffffffffffffffffffffffff16021790555060408201518160020160006101000a81548173ffffffffffffffffffffffffffffffffffffffff021916908373ffffffffffffffffffffffffffffffffffffffff160217905550606082015181600301908161026d9190610ea2565b506080820151816004015560a08201518160050160006101000a81548160ff0219169083151502179055509050508273ffffffffffffffffffffffffffffffffffffffff163373ffffffffffffffffffffffffffffffffffffffff167fa2e1697fc418aa0092973731742924954c645da2e7c8e9431707e4458b83ec80866040516102f89190610f74565b60405180910390a350505050565b60008180516020810182018051848252602083016020850120818352809550505050505060009150905080600001805461033f90610cc5565b80601f016020809104026020016040519081016040528092919081815260200182805461036b90610cc5565b80156103b85780601f1061038d576101008083540402835291602001916103b8565b820191906000526020600020905b81548152906001019060200180831161039b57829003601f168201915b5050505050908060010160009054906101000a900473ffffffffffffffffffffffffffffffffffffffff16908060020160009054906101000a900473ffffffffffffffffffffffffffffffffffffffff169080600301805461041990610cc5565b80601f016020809104026020016040519081016040528092919081815260200182805461044590610cc5565b80156104925780601f1061046757610100808354040283529160200191610492565b820191906000526020600020905b81548152906001019060200180831161047557829003601f168201915b5050505050908060040154908060050160009054906101000a900460ff16905086565b60606000806060600080866040516104cd9190610c13565b908152602001604051809103902060050160009054906101000a900460ff1661052b576040517f08c379a000000000000000000000000000000000000000000000000000000000815260040161052290610fe2565b60405180910390fd5b6000808760405161053c9190610c13565b90815260200160405180910390206040518060c001604052908160008201805461056590610cc5565b80601f016020809104026020016040519081016040528092919081815260200182805461059190610cc5565b80156105de5780601f106105b3576101008083540402835291602001916105de565b820191906000526020600020905b8154815290600101906020018083116105c157829003601f168201915b505050505081526020016001820160009054906101000a900473ffffffffffffffffffffffffffffffffffffffff1673ffffffffffffffffffffffffffffffffffffffff1673ffffffffffffffffffffffffffffffffffffffff1681526020016002820160009054906101000a900473ffffffffffffffffffffffffffffffffffffffff1673ffffffffffffffffffffffffffffffffffffffff1673ffffffffffffffffffffffffffffffffffffffff1681526020016003820180546106a390610cc5565b80601f01602080910402602001604051908101604052809291908181526020018280546106cf90610cc5565b801561071c5780601f106106f15761010080835404028352916020019161071c565b820191906000526020600020905b8154815290600101906020018083116106ff57829003601f168201915b50505050508152602001600482015481526020016005820160009054906101000a900460ff161515151581525050905080600001518160200151826040015183606001518460800151955095509550955095505091939590929450565b6000604051905090565b600080fd5b600080fd5b600080fd5b600080fd5b6000601f19601f8301169050919050565b7f4e487b7100000000000000000000000000000000000000000000000000000000600052604160045260246000fd5b6107e082610797565b810181811067ffffffffffffffff821117156107ff576107fe6107a8565b5b80604052505050565b6000610812610779565b905061081e82826107d7565b919050565b600067ffffffffffffffff82111561083e5761083d6107a8565b5b61084782610797565b9050602081019050919050565b82818337600083830152505050565b600061087661087184610823565b610808565b90508281526020810184848401111561089257610891610792565b5b61089d848285610854565b509392505050565b600082601f8301126108ba576108b961078d565b5b81356108ca848260208601610863565b91505092915050565b600073ffffffffffffffffffffffffffffffffffffffff82169050919050565b60006108fe826108d3565b9050919050565b61090e816108f3565b811461091957600080fd5b50565b60008135905061092b81610905565b92915050565b6000819050919050565b61094481610931565b811461094f57600080fd5b50565b6000813590506109618161093b565b92915050565b6000806000806080858703121561098157610980610783565b5b600085013567ffffffffffffffff81111561099f5761099e610788565b5b6109ab878288016108a5565b94505060206109bc8782880161091c565b935050604085013567ffffffffffffffff8111156109dd576109dc610788565b5b6109e9878288016108a5565b92505060606109fa87828801610952565b91505092959194509250565b600060208284031215610a1c57610a1b610783565b5b600082013567ffffffffffffffff811115610a3a57610a39610788565b5b610a46848285016108a5565b91505092915050565b600081519050919050565b600082825260208201905092915050565b60005b83811015610a89578082015181840152602081019050610a6e565b60008484015250505050565b6000610aa082610a4f565b610aaa8185610a5a565b9350610aba818560208601610a6b565b610ac381610797565b840191505092915050565b610ad7816108f3565b82525050565b610ae681610931565b82525050565b60008115159050919050565b610b0181610aec565b82525050565b600060c0820190508181036000830152610b218189610a95565b9050610b306020830188610ace565b610b3d6040830187610ace565b8181036060830152610b4f8186610a95565b9050610b5e6080830185610add565b610b6b60a0830184610af8565b979650505050505050565b600060a0820190508181036000830152610b908188610a95565b9050610b9f6020830187610ace565b610bac6040830186610ace565b8181036060830152610bbe8185610a95565b9050610bcd6080830184610add565b9695505050505050565b600081905092915050565b6000610bed82610a4f565b610bf78185610bd7565b9350610c07818560208601610a6b565b80840191505092915050565b6000610c1f8284610be2565b915081905092915050565b7f536869706d656e7420616c726561647920657869737473000000000000000000600082015250565b6000610c60601783610a5a565b9150610c6b82610c2a565b602082019050919050565b60006020820190508181036000830152610c8f81610c53565b9050919050565b7f4e487b7100000000000000000000000000000000000000000000000000000000600052602260045260246000fd5b60006002820490506001821680610cdd57607f821691505b602082108103610cf057610cef610c96565b5b50919050565b60008190508160005260206000209050919050565b60006020601f8301049050919050565b600082821b905092915050565b600060088302610d587fffffffffffffffffffffffffffffffffffffffffffffffffffffffffffffffff82610d1b565b610d628683610d1b565b95508019841693508086168417925050509392505050565b6000819050919050565b6000610d9f610d9a610d9584610931565b610d7a565b610931565b9050919050565b6000819050919050565b610db983610d84565b610dcd610dc582610da6565b848454610d28565b825550505050565b600090565b610de2610dd5565b610ded818484610db0565b505050565b5b81811015610e1157610e06600082610dda565b600181019050610df3565b5050565b601f821115610e5657610e2781610cf6565b610e3084610d0b565b81016020851015610e3f578190505b610e53610e4b85610d0b565b830182610df2565b50505b505050565b600082821c905092915050565b6000610e7960001984600802610e5b565b1980831691505092915050565b6000610e928383610e68565b9150826002028217905092915050565b610eab82610a4f565b67ffffffffffffffff811115610ec457610ec36107a8565b5b610ece8254610cc5565b610ed9828285610e15565b600060209050601f831160018114610f0c5760008415610efa578287015190505b610f048582610e86565b865550610f6c565b601f198416610f1a86610cf6565b60005b82811015610f4257848901518255600182019150602085019450602081019050610f1d565b86831015610f5f5784890151610f5b601f891682610e68565b8355505b6001600288020188555050505b505050505050565b60006020820190508181036000830152610f8e8184610a95565b905092915050565b7f536869706d656e74206e6f7420666f756e640000000000000000000000000000600082015250565b6000610fcc601283610a5a565b9150610fd782610f96565b602082019050919050565b60006020820190508181036000830152610ffb81610fbf565b905091905056fea26469706673582212200dea2e03e0eeac57cc9df96e75d1bce6b7c2730231bf0d71b1965c75f1ac757b64736f6c63430008140033",
  "linkReferences": {},
  "deployedLinkReferences": {}
}